{
  "_format": "hh-sol-artifact-1",
  "contractName": "CrowdFunding",
  "sourceName": "contracts/CrowdFunding.sol",
  "abi": [
    {
      "inputs": [],
      "stateMutability": "nonpayable",
      "type": "constructor"
    },
    {
      "inputs": [],
      "name": "campaignCount",
      "outputs": [
        {
          "internalType": "uint256",
          "name": "",
          "type": "uint256"
        }
      ],
      "stateMutability": "view",
      "type": "function"
    },
    {
      "inputs": [
        {
          "internalType": "uint256",
          "name": "",
          "type": "uint256"
        }
      ],
      "name": "campaigns",
      "outputs": [
        {
          "internalType": "uint256",
          "name": "id",
          "type": "uint256"
        },
        {
          "internalType": "string",
          "name": "name",
          "type": "string"
        },
        {
          "internalType": "string",
          "name": "description",
          "type": "string"
        },
        {
          "internalType": "uint256",
          "name": "goal",
          "type": "uint256"
        },
        {
          "internalType": "uint256",
          "name": "fundRaised",
          "type": "uint256"
        },
        {
          "internalType": "address",
          "name": "owner",
          "type": "address"
        },
        {
          "internalType": "bool",
          "name": "isClosed",
          "type": "bool"
        }
      ],
      "stateMutability": "view",
      "type": "function"
    },
    {
      "inputs": [
        {
          "internalType": "string",
          "name": "_name",
          "type": "string"
        },
        {
          "internalType": "string",
          "name": "_description",
          "type": "string"
        },
        {
          "internalType": "uint256",
          "name": "_goal",
          "type": "uint256"
        }
      ],
      "name": "createCampaign",
      "outputs": [],
      "stateMutability": "nonpayable",
      "type": "function"
    },
    {
      "inputs": [
        {
          "internalType": "uint256",
          "name": "_campaignId",
          "type": "uint256"
        }
      ],
      "name": "fundCampaign",
      "outputs": [],
      "stateMutability": "payable",
      "type": "function"
    },
    {
      "inputs": [],
      "name": "getAllCampaigns",
      "outputs": [
        {
          "components": [
            {
              "internalType": "uint256",
              "name": "id",
              "type": "uint256"
            },
            {
              "internalType": "string",
              "name": "name",
              "type": "string"
            },
            {
              "internalType": "string",
              "name": "description",
              "type": "string"
            },
            {
              "internalType": "uint256",
              "name": "goal",
              "type": "uint256"
            },
            {
              "internalType": "uint256",
              "name": "fundRaised",
              "type": "uint256"
            },
            {
              "internalType": "address",
              "name": "owner",
              "type": "address"
            },
            {
              "internalType": "bool",
              "name": "isClosed",
              "type": "bool"
            }
          ],
          "internalType": "struct CrowdFunding.Campaign[]",
          "name": "",
          "type": "tuple[]"
        }
      ],
      "stateMutability": "view",
      "type": "function"
    },
    {
      "inputs": [
        {
          "internalType": "uint256",
          "name": "_id",
          "type": "uint256"
        }
      ],
      "name": "getCampaign",
      "outputs": [
        {
          "components": [
            {
              "internalType": "uint256",
              "name": "id",
              "type": "uint256"
            },
            {
              "internalType": "string",
              "name": "name",
              "type": "string"
            },
            {
              "internalType": "string",
              "name": "description",
              "type": "string"
            },
            {
              "internalType": "uint256",
              "name": "goal",
              "type": "uint256"
            },
            {
              "internalType": "uint256",
              "name": "fundRaised",
              "type": "uint256"
            },
            {
              "internalType": "address",
              "name": "owner",
              "type": "address"
            },
            {
              "internalType": "bool",
              "name": "isClosed",
              "type": "bool"
            }
          ],
          "internalType": "struct CrowdFunding.Campaign",
          "name": "",
          "type": "tuple"
        }
      ],
      "stateMutability": "view",
      "type": "function"
    },
    {
      "inputs": [],
      "name": "owner",
      "outputs": [
        {
          "internalType": "address payable",
          "name": "",
          "type": "address"
        }
      ],
      "stateMutability": "view",
      "type": "function"
    },
    {
      "inputs": [
        {
          "internalType": "uint256",
          "name": "_id",
          "type": "uint256"
        }
      ],
      "name": "withdrawFunds",
      "outputs": [],
      "stateMutability": "nonpayable",
      "type": "function"
    }
  ],
  "bytecode": "0x6080604052348015600f57600080fd5b506000600181905550336000806101000a81548173ffffffffffffffffffffffffffffffffffffffff021916908373ffffffffffffffffffffffffffffffffffffffff160217905550611966806100676000396000f3fe60806040526004361061007b5760003560e01c806386cdf6041161004e57806386cdf604146101545780638da5cb5b1461017f57806392bd38bc146101aa578063ffa56a57146101c65761007b565b8063141961bc14610080578063155dd5ee146100c35780635598f8cc146100ec5780637274e30d14610129575b600080fd5b34801561008c57600080fd5b506100a760048036038101906100a29190610c83565b6101ef565b6040516100ba9796959493929190610dab565b60405180910390f35b3480156100cf57600080fd5b506100ea60048036038101906100e59190610c83565b61036e565b005b3480156100f857600080fd5b50610113600480360381019061010e9190610c83565b610524565b6040516101209190610f42565b60405180910390f35b34801561013557600080fd5b5061013e610704565b60405161014b9190610f64565b60405180910390f35b34801561016057600080fd5b5061016961070a565b60405161017691906110e4565b60405180910390f35b34801561018b57600080fd5b5061019461098c565b6040516101a19190611127565b60405180910390f35b6101c460048036038101906101bf9190610c83565b6109b0565b005b3480156101d257600080fd5b506101ed60048036038101906101e89190611277565b610aa9565b005b600260205280600052604060002060009150905080600001549080600101805461021890611331565b80601f016020809104026020016040519081016040528092919081815260200182805461024490611331565b80156102915780601f1061026657610100808354040283529160200191610291565b820191906000526020600020905b81548152906001019060200180831161027457829003601f168201915b5050505050908060020180546102a690611331565b80601f01602080910402602001604051908101604052809291908181526020018280546102d290611331565b801561031f5780601f106102f45761010080835404028352916020019161031f565b820191906000526020600020905b81548152906001019060200180831161030257829003601f168201915b5050505050908060030154908060040154908060050160009054906101000a900473ffffffffffffffffffffffffffffffffffffffff16908060050160149054906101000a900460ff16905087565b60006002600083815260200190815260200160002090508060050160009054906101000a900473ffffffffffffffffffffffffffffffffffffffff1673ffffffffffffffffffffffffffffffffffffffff163373ffffffffffffffffffffffffffffffffffffffff1614610417576040517f08c379a000000000000000000000000000000000000000000000000000000000815260040161040e906113ae565b60405180910390fd5b8060050160149054906101000a900460ff16610468576040517f08c379a000000000000000000000000000000000000000000000000000000000815260040161045f9061141a565b60405180910390fd5b60008160040154116104af576040517f08c379a00000000000000000000000000000000000000000000000000000000081526004016104a690611486565b60405180910390fd5b60008160040154905060008054906101000a900473ffffffffffffffffffffffffffffffffffffffff1673ffffffffffffffffffffffffffffffffffffffff166108fc829081150290604051600060405180830381858888f1935050505015801561051e573d6000803e3d6000fd5b50505050565b61052c610be4565b600260008381526020019081526020016000206040518060e00160405290816000820154815260200160018201805461056490611331565b80601f016020809104026020016040519081016040528092919081815260200182805461059090611331565b80156105dd5780601f106105b2576101008083540402835291602001916105dd565b820191906000526020600020905b8154815290600101906020018083116105c057829003601f168201915b505050505081526020016002820180546105f690611331565b80601f016020809104026020016040519081016040528092919081815260200182805461062290611331565b801561066f5780601f106106445761010080835404028352916020019161066f565b820191906000526020600020905b81548152906001019060200180831161065257829003601f168201915b5050505050815260200160038201548152602001600482015481526020016005820160009054906101000a900473ffffffffffffffffffffffffffffffffffffffff1673ffffffffffffffffffffffffffffffffffffffff1673ffffffffffffffffffffffffffffffffffffffff1681526020016005820160149054906101000a900460ff1615151515815250509050919050565b60015481565b6060600060015467ffffffffffffffff81111561072a5761072961114c565b5b60405190808252806020026020018201604052801561076357816020015b610750610be4565b8152602001906001900390816107485790505b5090506000600190505b600154811161098457600260008281526020019081526020016000206040518060e0016040529081600082015481526020016001820180546107ae90611331565b80601f01602080910402602001604051908101604052809291908181526020018280546107da90611331565b80156108275780601f106107fc57610100808354040283529160200191610827565b820191906000526020600020905b81548152906001019060200180831161080a57829003601f168201915b5050505050815260200160028201805461084090611331565b80601f016020809104026020016040519081016040528092919081815260200182805461086c90611331565b80156108b95780601f1061088e576101008083540402835291602001916108b9565b820191906000526020600020905b81548152906001019060200180831161089c57829003601f168201915b5050505050815260200160038201548152602001600482015481526020016005820160009054906101000a900473ffffffffffffffffffffffffffffffffffffffff1673ffffffffffffffffffffffffffffffffffffffff1673ffffffffffffffffffffffffffffffffffffffff1681526020016005820160149054906101000a900460ff1615151515815250508260018361095591906114d5565b8151811061096657610965611509565b5b6020026020010181905250808061097c90611538565b91505061076d565b508091505090565b60008054906101000a900473ffffffffffffffffffffffffffffffffffffffff1681565b60006002600083815260200190815260200160002090508060050160149054906101000a900460ff1615610a19576040517f08c379a0000000000000000000000000000000000000000000000000000000008152600401610a10906115cc565b60405180910390fd5b6000341015610a5d576040517f08c379a0000000000000000000000000000000000000000000000000000000008152600401610a549061165e565b60405180910390fd5b34816004016000828254610a71919061167e565b925050819055508060040154816003015411610aa55760018160050160146101000a81548160ff0219169083151502179055505b5050565b60016000815480929190610abc90611538565b919050555060006040518060e001604052806001548152602001858152602001848152602001838152602001600081526020013373ffffffffffffffffffffffffffffffffffffffff16815260200160001515815250905080600260006001548152602001908152602001600020600082015181600001556020820151816001019081610b49919061185e565b506040820151816002019081610b5f919061185e565b50606082015181600301556080820151816004015560a08201518160050160006101000a81548173ffffffffffffffffffffffffffffffffffffffff021916908373ffffffffffffffffffffffffffffffffffffffff16021790555060c08201518160050160146101000a81548160ff02191690831515021790555090505050505050565b6040518060e001604052806000815260200160608152602001606081526020016000815260200160008152602001600073ffffffffffffffffffffffffffffffffffffffff1681526020016000151581525090565b6000604051905090565b600080fd5b600080fd5b6000819050919050565b610c6081610c4d565b8114610c6b57600080fd5b50565b600081359050610c7d81610c57565b92915050565b600060208284031215610c9957610c98610c43565b5b6000610ca784828501610c6e565b91505092915050565b610cb981610c4d565b82525050565b600081519050919050565b600082825260208201905092915050565b60005b83811015610cf9578082015181840152602081019050610cde565b60008484015250505050565b6000601f19601f8301169050919050565b6000610d2182610cbf565b610d2b8185610cca565b9350610d3b818560208601610cdb565b610d4481610d05565b840191505092915050565b600073ffffffffffffffffffffffffffffffffffffffff82169050919050565b6000610d7a82610d4f565b9050919050565b610d8a81610d6f565b82525050565b60008115159050919050565b610da581610d90565b82525050565b600060e082019050610dc0600083018a610cb0565b8181036020830152610dd28189610d16565b90508181036040830152610de68188610d16565b9050610df56060830187610cb0565b610e026080830186610cb0565b610e0f60a0830185610d81565b610e1c60c0830184610d9c565b98975050505050505050565b610e3181610c4d565b82525050565b600082825260208201905092915050565b6000610e5382610cbf565b610e5d8185610e37565b9350610e6d818560208601610cdb565b610e7681610d05565b840191505092915050565b610e8a81610d6f565b82525050565b610e9981610d90565b82525050565b600060e083016000830151610eb76000860182610e28565b5060208301518482036020860152610ecf8282610e48565b91505060408301518482036040860152610ee98282610e48565b9150506060830151610efe6060860182610e28565b506080830151610f116080860182610e28565b5060a0830151610f2460a0860182610e81565b5060c0830151610f3760c0860182610e90565b508091505092915050565b60006020820190508181036000830152610f5c8184610e9f565b905092915050565b6000602082019050610f796000830184610cb0565b92915050565b600081519050919050565b600082825260208201905092915050565b6000819050602082019050919050565b600060e083016000830151610fc36000860182610e28565b5060208301518482036020860152610fdb8282610e48565b91505060408301518482036040860152610ff58282610e48565b915050606083015161100a6060860182610e28565b50608083015161101d6080860182610e28565b5060a083015161103060a0860182610e81565b5060c083015161104360c0860182610e90565b508091505092915050565b600061105a8383610fab565b905092915050565b6000602082019050919050565b600061107a82610f7f565b6110848185610f8a565b93508360208202850161109685610f9b565b8060005b858110156110d257848403895281516110b3858261104e565b94506110be83611062565b925060208a0199505060018101905061109a565b50829750879550505050505092915050565b600060208201905081810360008301526110fe818461106f565b905092915050565b600061111182610d4f565b9050919050565b61112181611106565b82525050565b600060208201905061113c6000830184611118565b92915050565b600080fd5b600080fd5b7f4e487b7100000000000000000000000000000000000000000000000000000000600052604160045260246000fd5b61118482610d05565b810181811067ffffffffffffffff821117156111a3576111a261114c565b5b80604052505050565b60006111b6610c39565b90506111c2828261117b565b919050565b600067ffffffffffffffff8211156111e2576111e161114c565b5b6111eb82610d05565b9050602081019050919050565b82818337600083830152505050565b600061121a611215846111c7565b6111ac565b90508281526020810184848401111561123657611235611147565b5b6112418482856111f8565b509392505050565b600082601f83011261125e5761125d611142565b5b813561126e848260208601611207565b91505092915050565b6000806000606084860312156112905761128f610c43565b5b600084013567ffffffffffffffff8111156112ae576112ad610c48565b5b6112ba86828701611249565b935050602084013567ffffffffffffffff8111156112db576112da610c48565b5b6112e786828701611249565b92505060406112f886828701610c6e565b9150509250925092565b7f4e487b7100000000000000000000000000000000000000000000000000000000600052602260045260246000fd5b6000600282049050600182168061134957607f821691505b60208210810361135c5761135b611302565b5b50919050565b7f4f6e6c79206f776e65722063616e2077697468647761772066756e6473000000600082015250565b6000611398601d83610cca565b91506113a382611362565b602082019050919050565b600060208201905081810360008301526113c78161138b565b9050919050565b7f43616d706169676e206973206e6f7420636c6f73656420796574000000000000600082015250565b6000611404601a83610cca565b915061140f826113ce565b602082019050919050565b60006020820190508181036000830152611433816113f7565b9050919050565b7f4e6f2066756e647320746f207769746864726177000000000000000000000000600082015250565b6000611470601483610cca565b915061147b8261143a565b602082019050919050565b6000602082019050818103600083015261149f81611463565b9050919050565b7f4e487b7100000000000000000000000000000000000000000000000000000000600052601160045260246000fd5b60006114e082610c4d565b91506114eb83610c4d565b9250828203905081811115611503576115026114a6565b5b92915050565b7f4e487b7100000000000000000000000000000000000000000000000000000000600052603260045260246000fd5b600061154382610c4d565b91507fffffffffffffffffffffffffffffffffffffffffffffffffffffffffffffffff8203611575576115746114a6565b5b600182019050919050565b7f43616d706169676e20697320636c6f7365640000000000000000000000000000600082015250565b60006115b6601283610cca565b91506115c182611580565b602082019050919050565b600060208201905081810360008301526115e5816115a9565b9050919050565b7f4d7573742073656e6420457468657220746f2066756e64207468652063616d7060008201527f6169676e00000000000000000000000000000000000000000000000000000000602082015250565b6000611648602483610cca565b9150611653826115ec565b604082019050919050565b600060208201905081810360008301526116778161163b565b9050919050565b600061168982610c4d565b915061169483610c4d565b92508282019050808211156116ac576116ab6114a6565b5b92915050565b60008190508160005260206000209050919050565b60006020601f8301049050919050565b600082821b905092915050565b6000600883026117147fffffffffffffffffffffffffffffffffffffffffffffffffffffffffffffffff826116d7565b61171e86836116d7565b95508019841693508086168417925050509392505050565b6000819050919050565b600061175b61175661175184610c4d565b611736565b610c4d565b9050919050565b6000819050919050565b61177583611740565b61178961178182611762565b8484546116e4565b825550505050565b600090565b61179e611791565b6117a981848461176c565b505050565b5b818110156117cd576117c2600082611796565b6001810190506117af565b5050565b601f821115611812576117e3816116b2565b6117ec846116c7565b810160208510156117fb578190505b61180f611807856116c7565b8301826117ae565b50505b505050565b600082821c905092915050565b600061183560001984600802611817565b1980831691505092915050565b600061184e8383611824565b9150826002028217905092915050565b61186782610cbf565b67ffffffffffffffff8111156118805761187f61114c565b5b61188a8254611331565b6118958282856117d1565b600060209050601f8311600181146118c857600084156118b6578287015190505b6118c08582611842565b865550611928565b601f1984166118d6866116b2565b60005b828110156118fe578489015182556001820191506020850194506020810190506118d9565b8683101561191b5784890151611917601f891682611824565b8355505b6001600288020188555050505b50505050505056fea26469706673582212203325c6a6ba11761c4b22dc29bbb763045241567974b94d6ce89adfaa182ecc3464736f6c634300081c0033",
  "linkReferences": {},
  "deployedLinkReferences": {}
}