{
  "_format": "hh-sol-artifact-1",
  "contractName": "Land",
  "sourceName": "contracts/Land.sol",
  "abi": [
    {
      "inputs": [],
      "stateMutability": "nonpayable",
      "type": "constructor"
    },
    {
      "inputs": [
        {
          "internalType": "address",
          "name": "sender",
          "type": "address"
        },
        {
          "internalType": "uint256",
          "name": "tokenId",
          "type": "uint256"
        },
        {
          "internalType": "address",
          "name": "owner",
          "type": "address"
        }
      ],
      "name": "ERC721IncorrectOwner",
      "type": "error"
    },
    {
      "inputs": [
        {
          "internalType": "address",
          "name": "operator",
          "type": "address"
        },
        {
          "internalType": "uint256",
          "name": "tokenId",
          "type": "uint256"
        }
      ],
      "name": "ERC721InsufficientApproval",
      "type": "error"
    },
    {
      "inputs": [
        {
          "internalType": "address",
          "name": "approver",
          "type": "address"
        }
      ],
      "name": "ERC721InvalidApprover",
      "type": "error"
    },
    {
      "inputs": [
        {
          "internalType": "address",
          "name": "operator",
          "type": "address"
        }
      ],
      "name": "ERC721InvalidOperator",
      "type": "error"
    },
    {
      "inputs": [
        {
          "internalType": "address",
          "name": "owner",
          "type": "address"
        }
      ],
      "name": "ERC721InvalidOwner",
      "type": "error"
    },
    {
      "inputs": [
        {
          "internalType": "address",
          "name": "receiver",
          "type": "address"
        }
      ],
      "name": "ERC721InvalidReceiver",
      "type": "error"
    },
    {
      "inputs": [
        {
          "internalType": "address",
          "name": "sender",
          "type": "address"
        }
      ],
      "name": "ERC721InvalidSender",
      "type": "error"
    },
    {
      "inputs": [
        {
          "internalType": "uint256",
          "name": "tokenId",
          "type": "uint256"
        }
      ],
      "name": "ERC721NonexistentToken",
      "type": "error"
    },
    {
      "anonymous": false,
      "inputs": [
        {
          "indexed": true,
          "internalType": "address",
          "name": "owner",
          "type": "address"
        },
        {
          "indexed": true,
          "internalType": "address",
          "name": "approved",
          "type": "address"
        },
        {
          "indexed": true,
          "internalType": "uint256",
          "name": "tokenId",
          "type": "uint256"
        }
      ],
      "name": "Approval",
      "type": "event"
    },
    {
      "anonymous": false,
      "inputs": [
        {
          "indexed": true,
          "internalType": "address",
          "name": "owner",
          "type": "address"
        },
        {
          "indexed": true,
          "internalType": "address",
          "name": "operator",
          "type": "address"
        },
        {
          "indexed": false,
          "internalType": "bool",
          "name": "approved",
          "type": "bool"
        }
      ],
      "name": "ApprovalForAll",
      "type": "event"
    },
    {
      "anonymous": false,
      "inputs": [
        {
          "indexed": true,
          "internalType": "address",
          "name": "from",
          "type": "address"
        },
        {
          "indexed": true,
          "internalType": "address",
          "name": "to",
          "type": "address"
        },
        {
          "indexed": true,
          "internalType": "uint256",
          "name": "tokenId",
          "type": "uint256"
        }
      ],
      "name": "Transfer",
      "type": "event"
    },
    {
      "inputs": [
        {
          "internalType": "address",
          "name": "to",
          "type": "address"
        },
        {
          "internalType": "uint256",
          "name": "tokenId",
          "type": "uint256"
        }
      ],
      "name": "approve",
      "outputs": [],
      "stateMutability": "nonpayable",
      "type": "function"
    },
    {
      "inputs": [
        {
          "internalType": "address",
          "name": "owner",
          "type": "address"
        }
      ],
      "name": "balanceOf",
      "outputs": [
        {
          "internalType": "uint256",
          "name": "",
          "type": "uint256"
        }
      ],
      "stateMutability": "view",
      "type": "function"
    },
    {
      "inputs": [
        {
          "internalType": "uint256",
          "name": "",
          "type": "uint256"
        }
      ],
      "name": "buildings",
      "outputs": [
        {
          "internalType": "string",
          "name": "name",
          "type": "string"
        },
        {
          "internalType": "address",
          "name": "owner",
          "type": "address"
        },
        {
          "internalType": "int256",
          "name": "posX",
          "type": "int256"
        },
        {
          "internalType": "int256",
          "name": "posY",
          "type": "int256"
        },
        {
          "internalType": "int256",
          "name": "posZ",
          "type": "int256"
        },
        {
          "internalType": "int256",
          "name": "sizeX",
          "type": "int256"
        },
        {
          "internalType": "int256",
          "name": "sizeY",
          "type": "int256"
        },
        {
          "internalType": "int256",
          "name": "sizeZ",
          "type": "int256"
        },
        {
          "internalType": "uint256",
          "name": "price",
          "type": "uint256"
        }
      ],
      "stateMutability": "view",
      "type": "function"
    },
    {
      "inputs": [],
      "name": "cost",
      "outputs": [
        {
          "internalType": "uint256",
          "name": "",
          "type": "uint256"
        }
      ],
      "stateMutability": "view",
      "type": "function"
    },
    {
      "inputs": [
        {
          "internalType": "uint256",
          "name": "tokenId",
          "type": "uint256"
        }
      ],
      "name": "getApproved",
      "outputs": [
        {
          "internalType": "address",
          "name": "",
          "type": "address"
        }
      ],
      "stateMutability": "view",
      "type": "function"
    },
    {
      "inputs": [
        {
          "internalType": "uint256",
          "name": "_id",
          "type": "uint256"
        }
      ],
      "name": "getBuilding",
      "outputs": [
        {
          "components": [
            {
              "internalType": "string",
              "name": "name",
              "type": "string"
            },
            {
              "internalType": "address",
              "name": "owner",
              "type": "address"
            },
            {
              "internalType": "int256",
              "name": "posX",
              "type": "int256"
            },
            {
              "internalType": "int256",
              "name": "posY",
              "type": "int256"
            },
            {
              "internalType": "int256",
              "name": "posZ",
              "type": "int256"
            },
            {
              "internalType": "int256",
              "name": "sizeX",
              "type": "int256"
            },
            {
              "internalType": "int256",
              "name": "sizeY",
              "type": "int256"
            },
            {
              "internalType": "int256",
              "name": "sizeZ",
              "type": "int256"
            },
            {
              "internalType": "uint256",
              "name": "price",
              "type": "uint256"
            }
          ],
          "internalType": "struct Land.Building",
          "name": "",
          "type": "tuple"
        }
      ],
      "stateMutability": "view",
      "type": "function"
    },
    {
      "inputs": [
        {
          "internalType": "uint256",
          "name": "_id",
          "type": "uint256"
        }
      ],
      "name": "getBuildingPrice",
      "outputs": [
        {
          "internalType": "uint256",
          "name": "",
          "type": "uint256"
        }
      ],
      "stateMutability": "view",
      "type": "function"
    },
    {
      "inputs": [],
      "name": "getBuildings",
      "outputs": [
        {
          "components": [
            {
              "internalType": "string",
              "name": "name",
              "type": "string"
            },
            {
              "internalType": "address",
              "name": "owner",
              "type": "address"
            },
            {
              "internalType": "int256",
              "name": "posX",
              "type": "int256"
            },
            {
              "internalType": "int256",
              "name": "posY",
              "type": "int256"
            },
            {
              "internalType": "int256",
              "name": "posZ",
              "type": "int256"
            },
            {
              "internalType": "int256",
              "name": "sizeX",
              "type": "int256"
            },
            {
              "internalType": "int256",
              "name": "sizeY",
              "type": "int256"
            },
            {
              "internalType": "int256",
              "name": "sizeZ",
              "type": "int256"
            },
            {
              "internalType": "uint256",
              "name": "price",
              "type": "uint256"
            }
          ],
          "internalType": "struct Land.Building[]",
          "name": "",
          "type": "tuple[]"
        }
      ],
      "stateMutability": "view",
      "type": "function"
    },
    {
      "inputs": [
        {
          "internalType": "address",
          "name": "owner",
          "type": "address"
        },
        {
          "internalType": "address",
          "name": "operator",
          "type": "address"
        }
      ],
      "name": "isApprovedForAll",
      "outputs": [
        {
          "internalType": "bool",
          "name": "",
          "type": "bool"
        }
      ],
      "stateMutability": "view",
      "type": "function"
    },
    {
      "inputs": [],
      "name": "maxSupply",
      "outputs": [
        {
          "internalType": "uint256",
          "name": "",
          "type": "uint256"
        }
      ],
      "stateMutability": "view",
      "type": "function"
    },
    {
      "inputs": [
        {
          "internalType": "string",
          "name": "_name",
          "type": "string"
        },
        {
          "internalType": "int256",
          "name": "_posX",
          "type": "int256"
        },
        {
          "internalType": "int256",
          "name": "_posY",
          "type": "int256"
        },
        {
          "internalType": "int256",
          "name": "_posZ",
          "type": "int256"
        },
        {
          "internalType": "int256",
          "name": "_sizeX",
          "type": "int256"
        },
        {
          "internalType": "int256",
          "name": "_sizeY",
          "type": "int256"
        },
        {
          "internalType": "int256",
          "name": "_sizeZ",
          "type": "int256"
        }
      ],
      "name": "mint",
      "outputs": [],
      "stateMutability": "payable",
      "type": "function"
    },
    {
      "inputs": [],
      "name": "name",
      "outputs": [
        {
          "internalType": "string",
          "name": "",
          "type": "string"
        }
      ],
      "stateMutability": "view",
      "type": "function"
    },
    {
      "inputs": [
        {
          "internalType": "uint256",
          "name": "tokenId",
          "type": "uint256"
        }
      ],
      "name": "ownerOf",
      "outputs": [
        {
          "internalType": "address",
          "name": "",
          "type": "address"
        }
      ],
      "stateMutability": "view",
      "type": "function"
    },
    {
      "inputs": [
        {
          "internalType": "address",
          "name": "from",
          "type": "address"
        },
        {
          "internalType": "address",
          "name": "to",
          "type": "address"
        },
        {
          "internalType": "uint256",
          "name": "tokenId",
          "type": "uint256"
        }
      ],
      "name": "safeTransferFrom",
      "outputs": [],
      "stateMutability": "nonpayable",
      "type": "function"
    },
    {
      "inputs": [
        {
          "internalType": "address",
          "name": "from",
          "type": "address"
        },
        {
          "internalType": "address",
          "name": "to",
          "type": "address"
        },
        {
          "internalType": "uint256",
          "name": "tokenId",
          "type": "uint256"
        },
        {
          "internalType": "bytes",
          "name": "data",
          "type": "bytes"
        }
      ],
      "name": "safeTransferFrom",
      "outputs": [],
      "stateMutability": "nonpayable",
      "type": "function"
    },
    {
      "inputs": [
        {
          "internalType": "address",
          "name": "operator",
          "type": "address"
        },
        {
          "internalType": "bool",
          "name": "approved",
          "type": "bool"
        }
      ],
      "name": "setApprovalForAll",
      "outputs": [],
      "stateMutability": "nonpayable",
      "type": "function"
    },
    {
      "inputs": [
        {
          "internalType": "bytes4",
          "name": "interfaceId",
          "type": "bytes4"
        }
      ],
      "name": "supportsInterface",
      "outputs": [
        {
          "internalType": "bool",
          "name": "",
          "type": "bool"
        }
      ],
      "stateMutability": "view",
      "type": "function"
    },
    {
      "inputs": [],
      "name": "symbol",
      "outputs": [
        {
          "internalType": "string",
          "name": "",
          "type": "string"
        }
      ],
      "stateMutability": "view",
      "type": "function"
    },
    {
      "inputs": [
        {
          "internalType": "uint256",
          "name": "tokenId",
          "type": "uint256"
        }
      ],
      "name": "tokenURI",
      "outputs": [
        {
          "internalType": "string",
          "name": "",
          "type": "string"
        }
      ],
      "stateMutability": "view",
      "type": "function"
    },
    {
      "inputs": [],
      "name": "totalSupply",
      "outputs": [
        {
          "internalType": "uint256",
          "name": "",
          "type": "uint256"
        }
      ],
      "stateMutability": "view",
      "type": "function"
    },
    {
      "inputs": [
        {
          "internalType": "address",
          "name": "from",
          "type": "address"
        },
        {
          "internalType": "address",
          "name": "to",
          "type": "address"
        },
        {
          "internalType": "uint256",
          "name": "_id",
          "type": "uint256"
        }
      ],
      "name": "transferFrom",
      "outputs": [],
      "stateMutability": "nonpayable",
      "type": "function"
    }
  ],
  "bytecode": "0x6080604052670de0b6b3a76400006006556005600755600060085534801561002657600080fd5b506040518060400160405280600781526020017f4d79204c616e64000000000000000000000000000000000000000000000000008152506040518060400160405280600481526020017f4d4c4e440000000000000000000000000000000000000000000000000000000081525081600090816100a2919061030a565b5080600190816100b2919061030a565b5050506103dc565b600081519050919050565b7f4e487b7100000000000000000000000000000000000000000000000000000000600052604160045260246000fd5b7f4e487b7100000000000000000000000000000000000000000000000000000000600052602260045260246000fd5b6000600282049050600182168061013b57607f821691505b60208210810361014e5761014d6100f4565b5b50919050565b60008190508160005260206000209050919050565b60006020601f8301049050919050565b600082821b905092915050565b6000600883026101b67fffffffffffffffffffffffffffffffffffffffffffffffffffffffffffffffff82610179565b6101c08683610179565b95508019841693508086168417925050509392505050565b6000819050919050565b6000819050919050565b60006102076102026101fd846101d8565b6101e2565b6101d8565b9050919050565b6000819050919050565b610221836101ec565b61023561022d8261020e565b848454610186565b825550505050565b600090565b61024a61023d565b610255818484610218565b505050565b5b818110156102795761026e600082610242565b60018101905061025b565b5050565b601f8211156102be5761028f81610154565b61029884610169565b810160208510156102a7578190505b6102bb6102b385610169565b83018261025a565b50505b505050565b600082821c905092915050565b60006102e1600019846008026102c3565b1980831691505092915050565b60006102fa83836102d0565b9150826002028217905092915050565b610313826100ba565b67ffffffffffffffff81111561032c5761032b6100c5565b5b6103368254610123565b61034182828561027d565b600060209050601f8311600181146103745760008415610362578287015190505b61036c85826102ee565b8655506103d4565b601f19841661038286610154565b60005b828110156103aa57848901518255600182019150602085019450602081019050610385565b868310156103c757848901516103c3601f8916826102d0565b8355505b6001600288020188555050505b505050505050565b613412806103eb6000396000f3fe60806040526004361061012a5760003560e01c806370a08231116100ab578063b85962601161006f578063b859626014610432578063b88d4fde1461044e578063c87b56dd14610477578063d5abeb01146104b4578063d9cf6a26146104df578063e985e9c51461050a5761012a565b806370a082311461032757806395d89b41146103645780639dfd8b021461038f578063a22cb465146103cc578063a26c68b0146103f55761012a565b806318160ddd116100f257806318160ddd1461022857806323b872dd1461025357806342842e0e1461027c5780634c96a062146102a55780636352211e146102ea5761012a565b806301ffc9a71461012f57806306fdde031461016c578063081812fc14610197578063095ea7b3146101d457806313faede6146101fd575b600080fd5b34801561013b57600080fd5b50610156600480360381019061015191906121d2565b610547565b604051610163919061221a565b60405180910390f35b34801561017857600080fd5b50610181610629565b60405161018e91906122c5565b60405180910390f35b3480156101a357600080fd5b506101be60048036038101906101b9919061231d565b6106bb565b6040516101cb919061238b565b60405180910390f35b3480156101e057600080fd5b506101fb60048036038101906101f691906123d2565b6106d7565b005b34801561020957600080fd5b506102126106ed565b60405161021f9190612421565b60405180910390f35b34801561023457600080fd5b5061023d6106f3565b60405161024a9190612421565b60405180910390f35b34801561025f57600080fd5b5061027a6004803603810190610275919061243c565b6106f9565b005b34801561028857600080fd5b506102a3600480360381019061029e919061243c565b610830565b005b3480156102b157600080fd5b506102cc60048036038101906102c7919061231d565b610850565b6040516102e1999897969594939291906124a8565b60405180910390f35b3480156102f657600080fd5b50610311600480360381019061030c919061231d565b610956565b60405161031e919061238b565b60405180910390f35b34801561033357600080fd5b5061034e6004803603810190610349919061253c565b610968565b60405161035b9190612421565b60405180910390f35b34801561037057600080fd5b50610379610a22565b60405161038691906122c5565b60405180910390f35b34801561039b57600080fd5b506103b660048036038101906103b1919061231d565b610ab4565b6040516103c391906126a5565b60405180910390f35b3480156103d857600080fd5b506103f360048036038101906103ee91906126f3565b610c7c565b005b34801561040157600080fd5b5061041c6004803603810190610417919061231d565b610c92565b6040516104299190612421565b60405180910390f35b61044c60048036038101906104479190612894565b610d1d565b005b34801561045a57600080fd5b50610475600480360381019061047091906129f3565b610f3f565b005b34801561048357600080fd5b5061049e6004803603810190610499919061231d565b610f64565b6040516104ab91906122c5565b60405180910390f35b3480156104c057600080fd5b506104c9610fcd565b6040516104d69190612421565b60405180910390f35b3480156104eb57600080fd5b506104f4610fd3565b6040516105019190612bfd565b60405180910390f35b34801561051657600080fd5b50610531600480360381019061052c9190612c1f565b611161565b60405161053e919061221a565b60405180910390f35b60007f80ac58cd000000000000000000000000000000000000000000000000000000007bffffffffffffffffffffffffffffffffffffffffffffffffffffffff1916827bffffffffffffffffffffffffffffffffffffffffffffffffffffffff1916148061061257507f5b5e139f000000000000000000000000000000000000000000000000000000007bffffffffffffffffffffffffffffffffffffffffffffffffffffffff1916827bffffffffffffffffffffffffffffffffffffffffffffffffffffffff1916145b806106225750610621826111f5565b5b9050919050565b60606000805461063890612c8e565b80601f016020809104026020016040519081016040528092919081815260200182805461066490612c8e565b80156106b15780601f10610686576101008083540402835291602001916106b1565b820191906000526020600020905b81548152906001019060200180831161069457829003601f168201915b5050505050905090565b60006106c68261125f565b506106d0826112e7565b9050919050565b6106e982826106e4611324565b61132c565b5050565b60065481565b60085481565b8273ffffffffffffffffffffffffffffffffffffffff1661071982610956565b73ffffffffffffffffffffffffffffffffffffffff161461076f576040517f08c379a000000000000000000000000000000000000000000000000000000000815260040161076690612d31565b60405180910390fd5b600060096001836107809190612d80565b8154811061079157610790612db4565b5b90600052602060002090600902019050828160010160006101000a81548173ffffffffffffffffffffffffffffffffffffffff021916908373ffffffffffffffffffffffffffffffffffffffff160217905550601481600801546107f59190612e12565b8160080160008282546108089190612e43565b9250508190555061082a8484846040518060200160405280600081525061133e565b50505050565b61084b83838360405180602001604052806000815250610f3f565b505050565b6009818154811061086057600080fd5b906000526020600020906009020160009150905080600001805461088390612c8e565b80601f01602080910402602001604051908101604052809291908181526020018280546108af90612c8e565b80156108fc5780601f106108d1576101008083540402835291602001916108fc565b820191906000526020600020905b8154815290600101906020018083116108df57829003601f168201915b5050505050908060010160009054906101000a900473ffffffffffffffffffffffffffffffffffffffff16908060020154908060030154908060040154908060050154908060060154908060070154908060080154905089565b60006109618261125f565b9050919050565b60008073ffffffffffffffffffffffffffffffffffffffff168273ffffffffffffffffffffffffffffffffffffffff16036109db5760006040517f89c62b640000000000000000000000000000000000000000000000000000000081526004016109d2919061238b565b60405180910390fd5b600360008373ffffffffffffffffffffffffffffffffffffffff1673ffffffffffffffffffffffffffffffffffffffff168152602001908152602001600020549050919050565b606060018054610a3190612c8e565b80601f0160208091040260200160405190810160405280929190818152602001828054610a5d90612c8e565b8015610aaa5780601f10610a7f57610100808354040283529160200191610aaa565b820191906000526020600020905b815481529060010190602001808311610a8d57829003601f168201915b5050505050905090565b610abc612104565b600082118015610ace57506008548211155b610b0d576040517f08c379a0000000000000000000000000000000000000000000000000000000008152600401610b0490612ec3565b60405180910390fd5b6009600183610b1c9190612d80565b81548110610b2d57610b2c612db4565b5b906000526020600020906009020160405180610120016040529081600082018054610b5790612c8e565b80601f0160208091040260200160405190810160405280929190818152602001828054610b8390612c8e565b8015610bd05780601f10610ba557610100808354040283529160200191610bd0565b820191906000526020600020905b815481529060010190602001808311610bb357829003601f168201915b505050505081526020016001820160009054906101000a900473ffffffffffffffffffffffffffffffffffffffff1673ffffffffffffffffffffffffffffffffffffffff1673ffffffffffffffffffffffffffffffffffffffff1681526020016002820154815260200160038201548152602001600482015481526020016005820154815260200160068201548152602001600782015481526020016008820154815250509050919050565b610c8e610c87611324565b8383611363565b5050565b60008082118015610ca557506008548211155b610ce4576040517f08c379a0000000000000000000000000000000000000000000000000000000008152600401610cdb90612ec3565b60405180910390fd5b6009600183610cf39190612d80565b81548110610d0457610d03612db4565b5b9060005260206000209060090201600801549050919050565b60075460085410610d63576040517f08c379a0000000000000000000000000000000000000000000000000000000008152600401610d5a90612f2f565b60405180910390fd5b600654341015610da8576040517f08c379a0000000000000000000000000000000000000000000000000000000008152600401610d9f90612f9b565b60405180910390fd5b60006001600854610db99190612e43565b905060006040518061012001604052808a81526020013373ffffffffffffffffffffffffffffffffffffffff168152602001898152602001888152602001878152602001868152602001858152602001848152602001600654815250905060098190806001815401808255809150506001900390600052602060002090600902016000909190919091506000820151816000019081610e589190613167565b5060208201518160010160006101000a81548173ffffffffffffffffffffffffffffffffffffffff021916908373ffffffffffffffffffffffffffffffffffffffff16021790555060408201518160020155606082015181600301556080820151816004015560a0820151816005015560c0820151816006015560e0820151816007015561010082015181600801555050600160086000828254610efc9190612e43565b92505081905550610f0d33836114d2565b6014600654610f1c9190612e12565b60066000828254610f2d9190612e43565b92505081905550505050505050505050565b610f4a8484846106f9565b610f5e610f55611324565b858585856114f0565b50505050565b6060610f6f8261125f565b506000610f7a6116a1565b90506000815111610f9a5760405180602001604052806000815250610fc5565b80610fa4846116b8565b604051602001610fb5929190613275565b6040516020818303038152906040525b915050919050565b60075481565b60606009805480602002602001604051908101604052809291908181526020016000905b8282101561115857838290600052602060002090600902016040518061012001604052908160008201805461102b90612c8e565b80601f016020809104026020016040519081016040528092919081815260200182805461105790612c8e565b80156110a45780601f10611079576101008083540402835291602001916110a4565b820191906000526020600020905b81548152906001019060200180831161108757829003601f168201915b505050505081526020016001820160009054906101000a900473ffffffffffffffffffffffffffffffffffffffff1673ffffffffffffffffffffffffffffffffffffffff1673ffffffffffffffffffffffffffffffffffffffff16815260200160028201548152602001600382015481526020016004820154815260200160058201548152602001600682015481526020016007820154815260200160088201548152505081526020019060010190610ff7565b50505050905090565b6000600560008473ffffffffffffffffffffffffffffffffffffffff1673ffffffffffffffffffffffffffffffffffffffff16815260200190815260200160002060008373ffffffffffffffffffffffffffffffffffffffff1673ffffffffffffffffffffffffffffffffffffffff16815260200190815260200160002060009054906101000a900460ff16905092915050565b60007f01ffc9a7000000000000000000000000000000000000000000000000000000007bffffffffffffffffffffffffffffffffffffffffffffffffffffffff1916827bffffffffffffffffffffffffffffffffffffffffffffffffffffffff1916149050919050565b60008061126b83611786565b9050600073ffffffffffffffffffffffffffffffffffffffff168173ffffffffffffffffffffffffffffffffffffffff16036112de57826040517f7e2732890000000000000000000000000000000000000000000000000000000081526004016112d59190612421565b60405180910390fd5b80915050919050565b60006004600083815260200190815260200160002060009054906101000a900473ffffffffffffffffffffffffffffffffffffffff169050919050565b600033905090565b61133983838360016117c3565b505050565b611349848484611988565b61135d611354611324565b858585856114f0565b50505050565b600073ffffffffffffffffffffffffffffffffffffffff168273ffffffffffffffffffffffffffffffffffffffff16036113d457816040517f5b08ba180000000000000000000000000000000000000000000000000000000081526004016113cb919061238b565b60405180910390fd5b80600560008573ffffffffffffffffffffffffffffffffffffffff1673ffffffffffffffffffffffffffffffffffffffff16815260200190815260200160002060008473ffffffffffffffffffffffffffffffffffffffff1673ffffffffffffffffffffffffffffffffffffffff16815260200190815260200160002060006101000a81548160ff0219169083151502179055508173ffffffffffffffffffffffffffffffffffffffff168373ffffffffffffffffffffffffffffffffffffffff167f17307eab39ab6107e8899845ad3d59bd9653f200f220920489ca2b5937696c31836040516114c5919061221a565b60405180910390a3505050565b6114ec828260405180602001604052806000815250611af5565b5050565b60008373ffffffffffffffffffffffffffffffffffffffff163b111561169a578273ffffffffffffffffffffffffffffffffffffffff1663150b7a02868685856040518563ffffffff1660e01b815260040161154f94939291906132ee565b6020604051808303816000875af192505050801561158b57506040513d601f19601f82011682018060405250810190611588919061334f565b60015b61160f573d80600081146115bb576040519150601f19603f3d011682016040523d82523d6000602084013e6115c0565b606091505b50600081510361160757836040517f64a0ae920000000000000000000000000000000000000000000000000000000081526004016115fe919061238b565b60405180910390fd5b805181602001fd5b63150b7a0260e01b7bffffffffffffffffffffffffffffffffffffffffffffffffffffffff1916817bffffffffffffffffffffffffffffffffffffffffffffffffffffffff19161461169857836040517f64a0ae9200000000000000000000000000000000000000000000000000000000815260040161168f919061238b565b60405180910390fd5b505b5050505050565b606060405180602001604052806000815250905090565b6060600060016116c784611b19565b01905060008167ffffffffffffffff8111156116e6576116e561273d565b5b6040519080825280601f01601f1916602001820160405280156117185781602001600182028036833780820191505090505b509050600082602001820190505b60011561177b578080600190039150507f3031323334353637383961626364656600000000000000000000000000000000600a86061a8153600a858161176f5761176e612de3565b5b04945060008503611726575b819350505050919050565b60006002600083815260200190815260200160002060009054906101000a900473ffffffffffffffffffffffffffffffffffffffff169050919050565b80806117fc5750600073ffffffffffffffffffffffffffffffffffffffff168273ffffffffffffffffffffffffffffffffffffffff1614155b1561193057600061180c8461125f565b9050600073ffffffffffffffffffffffffffffffffffffffff168373ffffffffffffffffffffffffffffffffffffffff161415801561187757508273ffffffffffffffffffffffffffffffffffffffff168173ffffffffffffffffffffffffffffffffffffffff1614155b801561188a57506118888184611161565b155b156118cc57826040517fa9fbf51f0000000000000000000000000000000000000000000000000000000081526004016118c3919061238b565b60405180910390fd5b811561192e57838573ffffffffffffffffffffffffffffffffffffffff168273ffffffffffffffffffffffffffffffffffffffff167f8c5be1e5ebec7d5bd14f71427d1e84f3dd0314c0f7b2291e5b200ac8c7c3b92560405160405180910390a45b505b836004600085815260200190815260200160002060006101000a81548173ffffffffffffffffffffffffffffffffffffffff021916908373ffffffffffffffffffffffffffffffffffffffff16021790555050505050565b600073ffffffffffffffffffffffffffffffffffffffff168273ffffffffffffffffffffffffffffffffffffffff16036119fa5760006040517f64a0ae920000000000000000000000000000000000000000000000000000000081526004016119f1919061238b565b60405180910390fd5b6000611a0883836000611c6c565b9050600073ffffffffffffffffffffffffffffffffffffffff168173ffffffffffffffffffffffffffffffffffffffff1603611a7b57816040517f7e273289000000000000000000000000000000000000000000000000000000008152600401611a729190612421565b60405180910390fd5b8373ffffffffffffffffffffffffffffffffffffffff168173ffffffffffffffffffffffffffffffffffffffff1614611aef578382826040517f64283d7b000000000000000000000000000000000000000000000000000000008152600401611ae69392919061337c565b60405180910390fd5b50505050565b611aff8383611e86565b611b14611b0a611324565b60008585856114f0565b505050565b600080600090507a184f03e93ff9f4daa797ed6e38ed64bf6a1f0100000000000000008310611b77577a184f03e93ff9f4daa797ed6e38ed64bf6a1f0100000000000000008381611b6d57611b6c612de3565b5b0492506040810190505b6d04ee2d6d415b85acef81000000008310611bb4576d04ee2d6d415b85acef81000000008381611baa57611ba9612de3565b5b0492506020810190505b662386f26fc100008310611be357662386f26fc100008381611bd957611bd8612de3565b5b0492506010810190505b6305f5e1008310611c0c576305f5e1008381611c0257611c01612de3565b5b0492506008810190505b6127108310611c31576127108381611c2757611c26612de3565b5b0492506004810190505b60648310611c545760648381611c4a57611c49612de3565b5b0492506002810190505b600a8310611c63576001810190505b80915050919050565b600080611c7884611786565b9050600073ffffffffffffffffffffffffffffffffffffffff168373ffffffffffffffffffffffffffffffffffffffff1614611cba57611cb9818486611f7f565b5b600073ffffffffffffffffffffffffffffffffffffffff168173ffffffffffffffffffffffffffffffffffffffff1614611d4b57611cfc6000856000806117c3565b6001600360008373ffffffffffffffffffffffffffffffffffffffff1673ffffffffffffffffffffffffffffffffffffffff168152602001908152602001600020600082825403925050819055505b600073ffffffffffffffffffffffffffffffffffffffff168573ffffffffffffffffffffffffffffffffffffffff1614611dce576001600360008773ffffffffffffffffffffffffffffffffffffffff1673ffffffffffffffffffffffffffffffffffffffff168152602001908152602001600020600082825401925050819055505b846002600086815260200190815260200160002060006101000a81548173ffffffffffffffffffffffffffffffffffffffff021916908373ffffffffffffffffffffffffffffffffffffffff160217905550838573ffffffffffffffffffffffffffffffffffffffff168273ffffffffffffffffffffffffffffffffffffffff167fddf252ad1be2c89b69c2b068fc378daa952ba7f163c4a11628f55a4df523b3ef60405160405180910390a4809150509392505050565b600073ffffffffffffffffffffffffffffffffffffffff168273ffffffffffffffffffffffffffffffffffffffff1603611ef85760006040517f64a0ae92000000000000000000000000000000000000000000000000000000008152600401611eef919061238b565b60405180910390fd5b6000611f0683836000611c6c565b9050600073ffffffffffffffffffffffffffffffffffffffff168173ffffffffffffffffffffffffffffffffffffffff1614611f7a5760006040517f73c6ac6e000000000000000000000000000000000000000000000000000000008152600401611f71919061238b565b60405180910390fd5b505050565b611f8a838383612043565b61203e57600073ffffffffffffffffffffffffffffffffffffffff168373ffffffffffffffffffffffffffffffffffffffff1603611fff57806040517f7e273289000000000000000000000000000000000000000000000000000000008152600401611ff69190612421565b60405180910390fd5b81816040517f177e802f0000000000000000000000000000000000000000000000000000000081526004016120359291906133b3565b60405180910390fd5b505050565b60008073ffffffffffffffffffffffffffffffffffffffff168373ffffffffffffffffffffffffffffffffffffffff16141580156120fb57508273ffffffffffffffffffffffffffffffffffffffff168473ffffffffffffffffffffffffffffffffffffffff1614806120bc57506120bb8484611161565b5b806120fa57508273ffffffffffffffffffffffffffffffffffffffff166120e2836112e7565b73ffffffffffffffffffffffffffffffffffffffff16145b5b90509392505050565b60405180610120016040528060608152602001600073ffffffffffffffffffffffffffffffffffffffff168152602001600081526020016000815260200160008152602001600081526020016000815260200160008152602001600081525090565b6000604051905090565b600080fd5b600080fd5b60007fffffffff0000000000000000000000000000000000000000000000000000000082169050919050565b6121af8161217a565b81146121ba57600080fd5b50565b6000813590506121cc816121a6565b92915050565b6000602082840312156121e8576121e7612170565b5b60006121f6848285016121bd565b91505092915050565b60008115159050919050565b612214816121ff565b82525050565b600060208201905061222f600083018461220b565b92915050565b600081519050919050565b600082825260208201905092915050565b60005b8381101561226f578082015181840152602081019050612254565b60008484015250505050565b6000601f19601f8301169050919050565b600061229782612235565b6122a18185612240565b93506122b1818560208601612251565b6122ba8161227b565b840191505092915050565b600060208201905081810360008301526122df818461228c565b905092915050565b6000819050919050565b6122fa816122e7565b811461230557600080fd5b50565b600081359050612317816122f1565b92915050565b60006020828403121561233357612332612170565b5b600061234184828501612308565b91505092915050565b600073ffffffffffffffffffffffffffffffffffffffff82169050919050565b60006123758261234a565b9050919050565b6123858161236a565b82525050565b60006020820190506123a0600083018461237c565b92915050565b6123af8161236a565b81146123ba57600080fd5b50565b6000813590506123cc816123a6565b92915050565b600080604083850312156123e9576123e8612170565b5b60006123f7858286016123bd565b925050602061240885828601612308565b9150509250929050565b61241b816122e7565b82525050565b60006020820190506124366000830184612412565b92915050565b60008060006060848603121561245557612454612170565b5b6000612463868287016123bd565b9350506020612474868287016123bd565b925050604061248586828701612308565b9150509250925092565b6000819050919050565b6124a28161248f565b82525050565b60006101208201905081810360008301526124c3818c61228c565b90506124d2602083018b61237c565b6124df604083018a612499565b6124ec6060830189612499565b6124f96080830188612499565b61250660a0830187612499565b61251360c0830186612499565b61252060e0830185612499565b61252e610100830184612412565b9a9950505050505050505050565b60006020828403121561255257612551612170565b5b6000612560848285016123bd565b91505092915050565b600082825260208201905092915050565b600061258582612235565b61258f8185612569565b935061259f818560208601612251565b6125a88161227b565b840191505092915050565b6125bc8161236a565b82525050565b6125cb8161248f565b82525050565b6125da816122e7565b82525050565b60006101208301600083015184820360008601526125fe828261257a565b915050602083015161261360208601826125b3565b50604083015161262660408601826125c2565b50606083015161263960608601826125c2565b50608083015161264c60808601826125c2565b5060a083015161265f60a08601826125c2565b5060c083015161267260c08601826125c2565b5060e083015161268560e08601826125c2565b5061010083015161269a6101008601826125d1565b508091505092915050565b600060208201905081810360008301526126bf81846125e0565b905092915050565b6126d0816121ff565b81146126db57600080fd5b50565b6000813590506126ed816126c7565b92915050565b6000806040838503121561270a57612709612170565b5b6000612718858286016123bd565b9250506020612729858286016126de565b9150509250929050565b600080fd5b600080fd5b7f4e487b7100000000000000000000000000000000000000000000000000000000600052604160045260246000fd5b6127758261227b565b810181811067ffffffffffffffff821117156127945761279361273d565b5b80604052505050565b60006127a7612166565b90506127b3828261276c565b919050565b600067ffffffffffffffff8211156127d3576127d261273d565b5b6127dc8261227b565b9050602081019050919050565b82818337600083830152505050565b600061280b612806846127b8565b61279d565b90508281526020810184848401111561282757612826612738565b5b6128328482856127e9565b509392505050565b600082601f83011261284f5761284e612733565b5b813561285f8482602086016127f8565b91505092915050565b6128718161248f565b811461287c57600080fd5b50565b60008135905061288e81612868565b92915050565b600080600080600080600060e0888a0312156128b3576128b2612170565b5b600088013567ffffffffffffffff8111156128d1576128d0612175565b5b6128dd8a828b0161283a565b97505060206128ee8a828b0161287f565b96505060406128ff8a828b0161287f565b95505060606129108a828b0161287f565b94505060806129218a828b0161287f565b93505060a06129328a828b0161287f565b92505060c06129438a828b0161287f565b91505092959891949750929550565b600067ffffffffffffffff82111561296d5761296c61273d565b5b6129768261227b565b9050602081019050919050565b600061299661299184612952565b61279d565b9050828152602081018484840111156129b2576129b1612738565b5b6129bd8482856127e9565b509392505050565b600082601f8301126129da576129d9612733565b5b81356129ea848260208601612983565b91505092915050565b60008060008060808587031215612a0d57612a0c612170565b5b6000612a1b878288016123bd565b9450506020612a2c878288016123bd565b9350506040612a3d87828801612308565b925050606085013567ffffffffffffffff811115612a5e57612a5d612175565b5b612a6a878288016129c5565b91505092959194509250565b600081519050919050565b600082825260208201905092915050565b6000819050602082019050919050565b6000610120830160008301518482036000860152612ac0828261257a565b9150506020830151612ad560208601826125b3565b506040830151612ae860408601826125c2565b506060830151612afb60608601826125c2565b506080830151612b0e60808601826125c2565b5060a0830151612b2160a08601826125c2565b5060c0830151612b3460c08601826125c2565b5060e0830151612b4760e08601826125c2565b50610100830151612b5c6101008601826125d1565b508091505092915050565b6000612b738383612aa2565b905092915050565b6000602082019050919050565b6000612b9382612a76565b612b9d8185612a81565b935083602082028501612baf85612a92565b8060005b85811015612beb5784840389528151612bcc8582612b67565b9450612bd783612b7b565b925060208a01995050600181019050612bb3565b50829750879550505050505092915050565b60006020820190508181036000830152612c178184612b88565b905092915050565b60008060408385031215612c3657612c35612170565b5b6000612c44858286016123bd565b9250506020612c55858286016123bd565b9150509250929050565b7f4e487b7100000000000000000000000000000000000000000000000000000000600052602260045260246000fd5b60006002820490506001821680612ca657607f821691505b602082108103612cb957612cb8612c5f565b5b50919050565b7f596f7520617265206e6f7420746865206f776e6572206f66207468697320746f60008201527f6b656e0000000000000000000000000000000000000000000000000000000000602082015250565b6000612d1b602383612240565b9150612d2682612cbf565b604082019050919050565b60006020820190508181036000830152612d4a81612d0e565b9050919050565b7f4e487b7100000000000000000000000000000000000000000000000000000000600052601160045260246000fd5b6000612d8b826122e7565b9150612d96836122e7565b9250828203905081811115612dae57612dad612d51565b5b92915050565b7f4e487b7100000000000000000000000000000000000000000000000000000000600052603260045260246000fd5b7f4e487b7100000000000000000000000000000000000000000000000000000000600052601260045260246000fd5b6000612e1d826122e7565b9150612e28836122e7565b925082612e3857612e37612de3565b5b828204905092915050565b6000612e4e826122e7565b9150612e59836122e7565b9250828201905080821115612e7157612e70612d51565b5b92915050565b7f496e76616c6964206275696c64696e6720494400000000000000000000000000600082015250565b6000612ead601383612240565b9150612eb882612e77565b602082019050919050565b60006020820190508181036000830152612edc81612ea0565b9050919050565b7f4275696c64696e67206e6f7420617661696c61626c6500000000000000000000600082015250565b6000612f19601683612240565b9150612f2482612ee3565b602082019050919050565b60006020820190508181036000830152612f4881612f0c565b9050919050565b7f4e6f7420656e6f7567682045746865722073656e740000000000000000000000600082015250565b6000612f85601583612240565b9150612f9082612f4f565b602082019050919050565b60006020820190508181036000830152612fb481612f78565b9050919050565b60008190508160005260206000209050919050565b60006020601f8301049050919050565b600082821b905092915050565b60006008830261301d7fffffffffffffffffffffffffffffffffffffffffffffffffffffffffffffffff82612fe0565b6130278683612fe0565b95508019841693508086168417925050509392505050565b6000819050919050565b600061306461305f61305a846122e7565b61303f565b6122e7565b9050919050565b6000819050919050565b61307e83613049565b61309261308a8261306b565b848454612fed565b825550505050565b600090565b6130a761309a565b6130b2818484613075565b505050565b5b818110156130d6576130cb60008261309f565b6001810190506130b8565b5050565b601f82111561311b576130ec81612fbb565b6130f584612fd0565b81016020851015613104578190505b61311861311085612fd0565b8301826130b7565b50505b505050565b600082821c905092915050565b600061313e60001984600802613120565b1980831691505092915050565b6000613157838361312d565b9150826002028217905092915050565b61317082612235565b67ffffffffffffffff8111156131895761318861273d565b5b6131938254612c8e565b61319e8282856130da565b600060209050601f8311600181146131d157600084156131bf578287015190505b6131c9858261314b565b865550613231565b601f1984166131df86612fbb565b60005b82811015613207578489015182556001820191506020850194506020810190506131e2565b868310156132245784890151613220601f89168261312d565b8355505b6001600288020188555050505b505050505050565b600081905092915050565b600061324f82612235565b6132598185613239565b9350613269818560208601612251565b80840191505092915050565b60006132818285613244565b915061328d8284613244565b91508190509392505050565b600081519050919050565b600082825260208201905092915050565b60006132c082613299565b6132ca81856132a4565b93506132da818560208601612251565b6132e38161227b565b840191505092915050565b6000608082019050613303600083018761237c565b613310602083018661237c565b61331d6040830185612412565b818103606083015261332f81846132b5565b905095945050505050565b600081519050613349816121a6565b92915050565b60006020828403121561336557613364612170565b5b60006133738482850161333a565b91505092915050565b6000606082019050613391600083018661237c565b61339e6020830185612412565b6133ab604083018461237c565b949350505050565b60006040820190506133c8600083018561237c565b6133d56020830184612412565b939250505056fea264697066735822122058f7279cf7bdff509f5e977914e9cdc5fee2f7ba7fcf396d33b514f7c4ca1da864736f6c634300081c0033",
  "linkReferences": {},
  "deployedLinkReferences": {}
}